:060000000C94DA000C94E0
:1000060000000C9400000C9400000C9400000C946A
:1000160000000C9400000C9400000C9400000C945A
:1000260000000C9400000C9400000C9400000C944A
:100036000E010C9400000C9400000C9400000C942B
:1000460000000C9400000C9400000C940000102793
:10005600E80364000A00010000100001100001001E
:10006600000000000000000000000000000000008A
:100076000000000000000000000041542B524D41DA
:1000860041440D0A0041542B42494E443D393844FF
:10009600332C41312C4635423534380D0A00415453
:1000A6002B42494E443D393844332C32312C4637A5
:1000B600334238310D0A0041542B494E49540D0A3A
:1000C6000041542B494E510D0A0041542B4C494EC8
:1000D6004B3D393844332C41312C46354235343882
:1000E6000D0A0041542B4C494E4B3D393844332CB4
:1000F60032312C4637334238310D0A0041542B44F5
:100106004953430D0A004F7665724C442C4B6720C9
:1001160000536166654C442C4B672000496E73742E
:1001260061626C652C7A3D004E65757472616C2C4B
:100136007A3D00537461626C652C7A3D000080C084
:1001460001002D4E414E00494E46000002000400BB
:1001560066000B006002800019006B028B0019001C
:100166008402A4000A009D02BD000900A702C70080
:100176001900B002D0001900C902E9000A00E20223
:1001860002010B00EC020C010B00F70217010C0038
:10019600020322010B000E032E010A001903390186
:1001A6000200B40344010100B80346010000F894BC
:1001B600EE27ECBBF1E0FBBFEBBFE5BF8DE0A2E0B5
:1001C600BB27ED938A95E9F780E098E0A0E6ED93EA
:1001D6000197E9F7E2E5F1E085919591009761F0E5
:1001E600A591B59105901590BF01F00105900D926E
:1001F6000197E1F7FB01F0CFEFE5EDBFE8E0EEBFD9
:10020600C0E6D2E00C948901AA935D9BFECFE881FB
:10021600ECB90C94E3030A921A92FA926A937A93CF
:100226008A939A93AA93BA93EA93FA93EFB7EA93C7
:100236000E944706FF93EF930E94E705AF91BF9197
:10024600EC930E944706A081AD3431F40E94470624
:10025600A0E0A083E1E04E2E5394E5E05E1608F0A0
:100266005524E991EFBFF991E991B991A991999135
:10027600899179916991F9901990099018950E9440
:100286004C060E945F0628F40E9466060F5F1F4F09
:10029600F8CF0E946D06ABE2B3E00E9410040E1781
:1002A6001F0748F4ABE2B3E0A00FB11FAC91ACDF7F
:1002B6000F5F1F4FF0CF1CC00E944C060E945F06C6
:1002C60028F40E9466060F5F1F4FF8CF0E946D0646
:1002D600A5E4B3E00E9410040E171F0748F4A5E436
:1002E600B3E0A00FB11FAC918FDF0F5F1F4FF0CFB0
:1002F600A8EEB3E00E942D07C698C598A8ECB0E01A
:100306000E942D07C59A099119910895EF9767974D
:1003160088E1A4E1B0E0E8E6F0E00E942C0900E004
:1003260010E0EFEFEABBE0E6E7BBE0E0E8BBE5BFE5
:10033600EFEFE4BFE0E0EBB9E8E9EAB9E6E8E0BDF3
:10034600E0E0E0BDE9E1E9B97894A0E10E94B703F5
:10035600E3E2F3E0FA93EA93A0E6B2E00E94F60342
:10036600EBE2F3E0FA93EA93ABE6B2E00E94F6031F
:10037600E5E4F3E0FA93EA93A4E8B2E00E94F60318
:10038600EFE5F3E0FA93EA93ADE9B2E00E94F603F3
:10039600EAE6F3E0FA93EA93A7EAB2E00E94F603EC
:1003A600E4E7F3E0FA93EA93A0EBB2E00E94F603E7
:1003B600EEE8F3E0FA93EA93A9ECB2E00E94F603C2
:1003C600E8EAF3E0FA93EA93A2EEB2E00E94F603BB
:1003D600C59A55DFB79BFECFA0EDB7E00E942D076B
:1003E600A5E512DF442021F40233E0E01E070CF0FD
:1003F60005C05524A5E50E947406F4CFFE01F196CA
:100406000E947D0659DFB79BFECFA0EDB7E00E94A4
:100416002D07A6E5F9DE442021F40233E0E01E07AD
:100426000CF005C05524A6E50E947406F4CFFE0123
:10043600BC960E947D06DE01D1960E94E704E8A7DD
:10044600F9A76AA77BA7DE019C960E94E704ECA3A6
:10045600FDA36EA37FA30E9488060E948D0628F442
:10046600E0E0E8A7E9A7EAA7EBA70E9494060E94A6
:100476008D0628F4E0E0ECA3EDA3EEA3EFA30E9423
:1004860088060E949906E8A7F9A76AA77BA70E9493
:1004960094060E949906ECA3FDA36EA37FA30E9477
:1004A600A006A0E0B0E080E291E40E942D087F93D0
:1004B6006F93FF93EF930E94A506A0E0B0E080E063
:1004C60091E40E942D08AF91BF918F919F910E9458
:1004D600AA067F936F93FF93EF930E94AF06AF91A7
:1004E600BF918F919F910E947B08EC8FFD8F6E8F3D
:1004F6007F8F0E94A006A0E0B0E080EA90E40E9410
:100506002D087F936F93FF93EF930E94A506A0E0BB
:10051600B0E080E490E40E942D08AF91BF918F91E6
:100526009F910E94DD077F936F93FF93EF930E9445
:10053600AF06AF91BF918F919F910E947B08E88F84
:10054600F98F6A8F7B8F0E94A006A0E0B0E080E85A
:1005560090E40E942D080E9494060E94D6077F937D
:100566006F93FF93EF930E94AF06AF91BF918F9168
:100576009F910E947B08EC8BFD8B6E8B7F8B0E947C
:1005860088060E94180929F40E9494060E941809F8
:1005960009F00DC0E0E0EC8FED8FEE8FEF8FE88F66
:1005A600E98FEA8FEB8FEC8BED8BEE8BEF8B0E9456
:1005B600AF06E8A3F9A36AA37BA3A8A1B9A18AA160
:1005C6009BA1E0E0F0E060EA70E40E94C00809F058
:1005D60008F405C00E94B406ACEEB2E004C00E9466
:1005E600B406A7EFB2E00E94F603E8A1F9A16AA15A
:1005F6007BA10E940109E2E0EA93DE0115960E94C2
:100606001C040E94B406DE0112960E94E503AC8922
:10061600BD898E899F89E0E0F0E060E470E40E9485
:10062600C00809F008F405C00E94BA06A2E0B3E0CB
:1006360015C0AC89BD898E899F89A030E0E0BE07D0
:10064600E0E48E07E0E49E0729F40E94BA06AEE0D5
:10065600B3E004C00E94BA06A9E1B3E00E94F60323
:10066600EC89FD896E897F890E940109E3E0EA939E
:10067600DE011A960E941C040E94BA06DE01179635
:100686000E94E5033FD0E0E0EA93A0E02ED0DE0131
:10069600AA5BBF4F58D0E0E0EA93A1E026D0DE0186
:1006A600D69651D096CEFFCFAA93EBB3EF70AE2F6E
:1006B600E881E07FEA2BEBBB8BE18A95F1F7DA9ACA
:1006C6008BE18A95F1F7DA988BE18A95F1F778C094
:1006D600AA93A881E9DFE881E295E883A881E4DFAF
:1006E60088EC90E00197F1F76BC0AA93E881F0E0FF
:1006F600EC54FC4FE081A981AE0FEADF7980688077
:1007060022960895A2E00E94BF06ACE0E1DFA1E0D8
:100716000E94BF06E0E06E2E7E2E0895AA93A88161
:10072600AA3011F0791448F0E0E0EA936394A62D1C
:10073600DCDFA881AA3009F443C07394D89AA88153
:10074600C7DFD8983DC0BA93AA931A93A981BA81F4
:10075600ED91A983BA831E2FE03019F0A12FDEDFB9
:10076600F5CF188123960895AA93EAB3E06FEABB02
:10077600D29AD09AD19ADA98D898D9989880E8815E
:10078600E058E093B603E881E054E093B703A4E1B0
:10079600B0E00E942D070E94C5060E94C5060E9471
:1007A600C506A0E281DF80E991E00197F1F7A8E2B2
:1007B6008FDFA4E08DDFA5E88BDFA6E089DFA2DF6F
:1007C60021960895BA93AA93E991F991A991B991BD
:1007D600CD016D916623E9F7119761916D936623BB
:1007E600E1F7FC010895BA93AA93E991F991A991C9
:1007F600B991CD0161916D936623E1F7FC010895EE
:10080600BA93AA93E991F991A991B991CD0105906D
:100816000D920020E1F7FC010895BA93AA93A991DD
:10082600B991EE27FF276D91662311F03196FBCF24
:100836000895BA93AA932497E0E0E883E983EA83CC
:10084600EFE3EB831A930A93EB85FC85EF3FAFEF5B
:10085600FA0739F40E94CD06A8E4B1E00E94030429
:10086600AFC0EF3FAFE7FA0739F40E94CD06A9E41F
:10087600B1E00E940304A4C0AC85AA2362F4E98512
:10088600FA856B857C850E9437070E94D2060E94F6
:10089600D706EDE2EC93A885A73010F0E6E0E887EE
:1008A6001885E12F1150E03039F00E94DE060E94D3
:1008B600E3060E94EA06F5CF0E94EF060E94DD07D6
:1008C6000E94D20610E00E94F8060E94EA060E94E4
:1008D600EF060E94C00888F00E94DE060E94FD0610
:1008E6000E94EA061F5F173238F00E94CD06ADE47B
:1008F600B1E00E94030464C0EACF103029F40E94DC
:10090600D706E0E3EC932FC0E12F1150E03059F108
:100916000E94DE060E94E306A0E0B0E080E09FE3CE
:100926000E94DD07DF01CB010E9430060E94EA0625
:100936000E94EF060E947B080E946A070E2F0E9403
:10094600D706E02FE05DEC93E02FF0E00E94DE0694
:100956000E9404070E942D080E9409070E94AA0609
:100966000E94D206D1CFE885E03031F10E94D70649
:10097600EEE2EC93E885E150E887EF5FE9F00E944C
:1009860009070E94FD060E94D206E985FA856B8555
:100996007C850E946A070E2F0E94D706E02FE05D35
:1009A600EC93E02FF0E00E9409070E9404070E94E2
:1009B600AA060E94D206DECFAE81BF81E0E0EC93AC
:1009C600198108812D960895BA93AA932A970E94B1
:1009D6001E09E0E0E887E987EA87EB87A889B989F5
:1009E600EC915E2FAE2F0E94F405E03031F0E889DD
:1009F600F9893196E88BF98BF1CFE0E0EF835B3232
:100A060021F05D3239F4E1E0EF83E889F989319626
:100A1600E88BF98BE0E04E2F5E2F08891989A889AB
:100A2600B989AC910E94EB05E03049F4A889B989EF
:100A3600AC91EEE20E94ED085E2FE03039F0452BD6
:100A4600E889F9893196E88BF98BE9CF28893989C4
:100A5600403029F1E889F9893197E88BF98BA88923
:100A6600B989AC91AE32D9F0A889B989EC91F0E098
:100A7600F0970E940E070E9404070E94DD07DF011F
:100A8600CB01E0E0F0E060E271E40E947B080E94A6
:100A96001307E889F9893197E88BF98BE0CF0E9433
:100AA6001807A889B9891197A88BB98BA017B10720
:100AB600B0F0EC91F0E0F0970E941E070E94040748
:100AC6000E942D080E940E070E94DD070E94130750
:100AD6000E941E070E94FD060E942307E2CFD9014D
:100AE6002F5F3F4F5C91553619F0553409F059C0C8
:100AF600E0E04E2FEE83D9015C915B3221F05D324E
:100B060021F4E1E0EE832F5F3F4FD9012F5F3F4F86
:100B1600EC915E2FAE2F0E94EB05E03039F0AAE093
:100B26004A02F001E50FE0534E2FEFCF473268F04F
:100B3600EF81E03029F0EFEFFFEF6FE77FEF40C086
:100B4600EFEFFFEF6FE77FE73BC050E20E94180729
:100B5600503099F00E9428070E941E070E942D0817
:100B66000E942307E42FE52331F00E941E070E940E
:100B7600FD060E9423075695EBCFEE81E03039F053
:100B86000E9428070E940E070E947B0806C00E944A
:100B960028070E940E070E942D08E887F9876A87B2
:100BA6007B87EF81E03041F0E885F9856A857B85B2
:100BB6000E9437070E941307E885F9856A857B85B9
:100BC6000E942509629608955F9BFECFECB10895B9
:100BD600AA93E1E0F991F03310F0FA3308F0EE272A
:100BE6000895AA93E1E0F991F03229F0F93010F076
:100BF600FE3008F0EE2708950E9406097B816A817F
:100C0600F981E88177FB770F67FD7160972F9E5713
:100C160081F078F0983190F4AA27BB2788270894AA
:100C26008795B795A7959A95D1F7EA23FB2368236D
:100C360005C0E8947727EE27FF2766276F77769516
:100C460008F4606877F9A991B99189919991EA17A1
:100C5600FB076807790797FB08950E9406090E941B
:100C6600F7080E94FF050E94FC0819F40E94F2088A
:100C760009C0E6F70E94F208A0E0B0E080E89FE332
:100C86000E94D60724960895E52DF0E0E155FC4F25
:100C960008951A930A9300E010E0C698C598A8EC48
:100CA600B0E00E942D07C69AA4E6B0E00E942D0788
:100CB600C59A00E010E00895A3E2B3E00E94100494
:100CC6000E171F070895A3E2B3E0A00FB11FAC9162
:100CD6000C940701A8EEB3E00E942D0700E010E097
:100CE60008950E940701A4E6B0E00E942D070F5F59
:100CF6001F4F0895FA93EA93AFEAB3E00E94F60312
:100D060000E010E0442455240895A8A5B9A58AA5B5
:100D16009BA50895E0E0F0E068EC72E40E94C0084C
:100D26000895ACA1BDA18EA19FA10895E0E0F0E0D9
:100D36006AE774E40E947B080895E8A5F9A56AA508
:100D46007BA50895ECA1FDA16EA17FA108950E9447
:100D56000B090E94D6070895F5DFD7DF0E94DD074D
:100D66000895FE01EA5BFF4FFA93EA930895FE01A8
:100D7600F696FA93EA9308950E946B03A3E0B0E017
:100D86000C942D07A0E30E94570380E991E0019798
:100D9600F1F70895EE81FF81FA93EA930895E987C2
:100DA600FA876B877C870895AE81BF811196AE83E3
:100DB600BF8311970895AA81BB818C819D81089577
:100DC600EDECFCEC6CEC7DE30E942D080895EA83C3
:100DD600FB836C837D830895EA81FB816C817D8131
:100DE600A985BA858B859C850895E0E0F0E060E8EA
:100DF6007FE30895E0E0F0E060E271E40E942D08F0
:100E060008950E94E8080E94A3070895A985BA8557
:100E16008B859C850895A885B9858A859B850895C7
:100E2600E887F9876A877B870895DFDFEC87FD8788
:100E36006E877F870895AC85BD858E859F850895CD
:100E4600EC87FD876E877F870895EC85FD856E8527
:100E56007F850895109639F080EA9FE00197F1F7B3
:100E6600A8951197C9F7089530976040704009F02A
:100E760070580895552342F4503811F4E0FF04C029
:100E86003196691F791F6BF050E8572711F45F936D
:100E9600CFC05F3F31F0660F000C57956795752FF1
:100EA60008955F9300200AF0CFC0C8C050E8192EFD
:100EB6001522880F991F9527550F879550E8072EFD
:100EC6000522660F771F7527550F67950895689455
:100ED60001C0E8945F93F2DF703818F07F3F08F4A2
:100EE600A7C056E1571BAAF4519558300EF4593055
:100EF60030F0EFEFFFEF6FEF7FE777F91AC0772754
:100F06005523B9F0EE0FFF1F661F771F5A95D1F7CD
:100F160010C07727583028F0EF2FF62F672F58503C
:100F2600F9CF552331F076956795F795E7955A955C
:100F3600D1F700200AF441D15F910895689401C069
:100F4600E894309760407040B1F0002426F0772393
:100F560012F4009432D1172E7EE1112032F07A95E8
:100F6600EE0FFF1F661F111CF9CFEF2FF62F612D15
:100F76005F938ADF5F9108954F93AF01FD01DA0118
:100F8600AB01BC01CA01402D012C142E4F910895CE
:100F9600EA0FFB1F681F0895E095F0956095EF5FD7
:100FA600FF4F6F4F08955F9381DF903871F150E8DE
:100FB600152604C05F937ADF903839F1703821F135
:100FC600572F591B2BF112F4D7DFFACF583118F0EF
:100FD600AA27BB278827583028F0AB2FB82F882799
:100FE6005850F9CF552329F08695B795A7955A9568
:100FF600D9F7502D512572F0CBDF38F46795F79568
:10100600E795739513F420C0B7DF3EDF5F9108952F
:10101600D8F7FBCFEA1BFB0B680B51F010F40094DA
:10102600BBDF662392F3EE0FFF1F661F7A95CBF7A1
:10103600EE27FF27662777275F910895EFEFFFEFEB
:101046006FE77FEF5F910895EFEFFFEF6FE77FE7C1
:101056005F9108955F932ADF703851F3903841F31A
:1010660001240894791F23F41CF300203AF3ECCFF3
:101076000F921F932F933F934F9311272227992760
:10108600689FA0018F9F302D410D591F6B9F300D1A
:10109600411D591F8E9F27D0BF9F25D06A9F23D001
:1010A600BE9F1DD0AF9F1BD0AE9F110D291F391FAC
:1010B600491F591FE32FF42F652F522F4F913F9150
:1010C6002F911F910F9066232AF0550FEE1FFF1FD9
:1010D600661F02C073954BF2CDDE5F910895100D29
:1010E600211D391F02C0200D311D491F591F0895AA
:1010F6005F93DCDE703821F411200AF49FCFA4CF71
:10110600903809F495CF01240894970B1BF4D4F377
:101116000020F3CF792F1F932F933F934F931124E2
:101126001127222733274427552790E2AE17BF07FA
:101136008607410730F0AE1BBF0B860B410B0894A8
:1011460001C08894551F221F331F111CAA1FBB1FE5
:10115600881F441F9A9551F7F901612D4F913F91D0
:101166002F911F91662332F0550FEE1FFF1F661F4A
:101176007A9543F27FDE5F91089599239AF077235B
:1011860042F0971748F029F4AE17BF07860720F0FC
:1011960031F0989488940895989408940895189432
:1011A600889408957723C2F7971798F3A9F7EA1753
:1011B600FB07680788F399F3ECCFF0956095709577
:1011C600E195FF4F6F4F7F4F08956F2F660F660BA8
:1011D600762F0895EA17E1E009F0EE270895E881F1
:1011E600F9816A817B810895A881B9818A819B8171
:1011F6000895E883F9836A837B8308957A936A93D3
:10120600FA93EA9308959A938A93BA93AA930895C0
:10121600182E862F612D192E972F712D1B2EBF2F5D
:10122600F12D1A2EAE2FE12D089500240A160B0675
:101236000806090608955A934A933A932A931A93ED
:101246000A9308955D814C813B812A811981088129
:101256000895AC0FBD1F05900D928A95E1F708958C
:00000001FF
