:020000000C945E
:100002004B000C9400000C9400000C9400000C9423
:1000120000000C9400000C9400000C9400000C945E
:1000220000000C9400000C9400000C9400000C944E
:1000320000000C947F000C9400000C9400000C94BF
:1000420000000C9400000C9400000C9400000C942E
:1000520000001027E80364000A00010000100001FC
:10006200100001005472616E736D697474696E6779
:10007200000080C001002D4E414E00494E46000056
:100082000D00600266000200720274000100760236
:1000920076000000F894EE27ECBBF1E0FBBFEBBF6B
:1000A200E5BF8DE0A2E0BB27ED938A95E9F780E0FA
:1000B20098E0A0E6ED930197E9F7E2E8F0E0859198
:1000C2009591009761F0A591B59105901590BF01AA
:1000D200F00105900D920197E1F7FB01F0CFEFE5FA
:1000E200EDBFE8E0EEBFC0E6D2E00C94F800AA93C0
:1000F2005D9BFECFE881ECB90C94EC010A921A9256
:10010200FA926A937A938A939A93AA93BA93EA9306
:10011200FA93EFB7EA931A930A9300E010E00E9471
:1001220039025E2EE6E5E515C9F40E943D02A0E61D
:10013200B2E014D100E010E0ADE6B2E00E94FF01AF
:100142000E171F0748F4ADE6B2E0A00FB11FAC9145
:10015200CEDF0F5F1F4FF0CFADE4C9DF09911991D8
:10016200E991EFBFF991E991B991A9919991899199
:1001720079916991F99019900990189524971A9399
:100182009498E0E0E983EA83EB83EC838599FECFE0
:1001920010E01831A0F4949A0E9444020E9477025F
:1001A2000E9449029498859B08C00E944402EF5F16
:1001B200FF4F6F4F7F4F0E9449021F5FEACFA98115
:1001C200BA818B819C81E0E0F0E060E870E00E94FF
:1001D2006E020E94490210E0123020F4949A949820
:1001E2001F5FFACF0E9444021881259608956897EE
:1001F200E0E0E883E983EA83EB83EFEFEABB8C9AE2
:10020200E0E0E5BFEFEFE4BFE0E0EBB9E8E9EAB92F
:10021200E6E8E0BDE0E0E0BDE9E1E9B97894A0E11B
:10022200AED0ACDF0E94CC020E94C702E0E2F0E056
:1002320060E070E00E9494028F0120EF3BEF200FFC
:10024200311F3A932A93DE011A960E944E02E83E2B
:10025200A3E0FA07BCF4E0E0F0E0FA93EA93ADE63B
:10026200B2E00E944E02FA93EA93DE0116960E94D1
:100272000B02EDE6F2E0FA93EA93DE0116960E9493
:10028200EE010BC0D901E3E0F0E00E948F02FA9385
:10029200EA93ADE6B2E00E940B020E943D02DE014B
:1002A20018965CD0E0E0EA93A1E02AD0ADE6B2E095
:1002B20055D0A8EEB3E00E946402B3CFFFCFAA9359
:1002C200EBB3EF70AE2FE881E07FEA2BEBBB8BE163
:1002D2008A95F1F7DA9A8BE18A95F1F7DA988BE150
:1002E2008A95F1F778C0AA93A881E9DFE881E295BF
:1002F200E883A881E4DF88EC90E00197F1F76BC016
:10030200AA93E881F0E0EE58FD4FE081A981AE0F9B
:10031200EADF4980788022960895A2E00E94560280
:10032200ACE0E1DFA1E00E945602E0E07E2E4E2E1C
:100332000895AA93A881AA3011F0461448F0E0E08B
:10034200EA937394A72DDCDFA881AA3009F443C095
:100352004394D89AA881C7DFD8983DC0BA93AA938C
:100362001A93A981BA81ED91A983BA831E2FE03035
:1003720019F0A12FDEDFF5CF188123960895AA93F5
:10038200EAB3E06FEABBD29AD09AD19ADA98D898B7
:10039200D9986880E881E058E0937402E881E054DB
:1003A200E0937502A4E1B0E00E9464020E945C0244
:1003B2000E945C020E945C02A0E281DF80E991E07F
:1003C2000197F1F7A8E28FDFA4E08DDFA5E88BDFCC
:1003D200A6E089DFA2DF21960895BA93AA93E99154
:1003E200F991A991B991CD016D916623E9F7119720
:1003F20061916D936623E1F7FC010895BA93AA9384
:10040200A991B991EE27FF276D91662311F03196DC
:10041200FBCF0895BA93AA93A991B991E991F99161
:1004220030962AF4E095F09531966DE26D93E8945A
:1004320080E197E20DD088EE93E00AD084E6992716
:1004420007D08AE005D06E2F10D066276C930895EE
:100452006627E817F90720F06395E81BF90BC9F73F
:10046200662311F416F008956894605D6D93089503
:100472005F9BFECFECB108950E948E01E0E0EA930B
:10048200A0E00C948101E981FA816B817C8108955D
:10049200E983FA836B837C8308950E940B02D9015E
:1004A200E3E0F0E00E948F0208950E947401A3E04D
:1004B200B0E00C946402A0E30E94600180E991E044
:1004C2000197F1F70895109639F080EA9FE00197BD
:1004D200F1F7A8951197C9F70895EA27FB2768272E
:1004E20079270895F195E195F0400895EE0FFF1FE9
:1004F200661F771F08950024112490E1AA0FBB1FE5
:10050200001C111C0E1A1F0A18F40E0E1F1E01C029
:10051200A1609A9599F7FD01D001089529D0EBDFEA
:100522000EF4E0DF08953F934F935F93002411246C
:100532004427552730E2AA0FBB1F881F991F001CB2
:10054200111C441F551F0E1A1F0A460B570B28F485
:100552000E0E1F1E461F571F01C0A1603A9559F784
:10056200FD01BC01D001CA015F914F913F910895F5
:10057200E894F7FF02C0B6DF6894B7FF06C0A09503
:10058200B095119600F8039400FA0895A881B981F4
:100592008A819B810895E883F9836A837B83089526
:00000001FF
