:0E0000000C94B9000C9400000C9400000C94B9
:10000E0000000C9400000C9400000C9400000C9462
:10001E0000000C9400000C9400000C9400000C9452
:10002E0000000C9400000C94ED000C9400000C9455
:10003E0000000C9400000C9400000C9400000C9432
:10004E0000000C9400001027E80364000A00010071
:10005E000010000110000100000041540D0A004183
:10006E00542B524D4141440D0A0041542B42494EEE
:10007E00443D393844332C41312C463542353438E1
:10008E000D0A0041542B42494E443D393844332C1D
:10009E0032312C4637334238310D0A0041542B4948
:1000AE004E49540D0A0041542B494E510D0A004140
:1000BE00542B4C494E4B3D393844332C41312C4650
:1000CE0035423534380D0A0041542B4C494E4B3DC8
:1000DE00393844332C32312C4637334238310D0AFD
:1000EE000041542B444953430D0A0041542B5354A1
:1000FE004154450D0A0053746820466973687900AF
:10010E0080C001002D4E414E00494E4600000200B7
:10011E00040066000500600268000B0065026D00B9
:10012E001900700278001900890291000A00A202DB
:10013E00AA000900AC02B4001900B502BD001900F6
:10014E00CE02D6000A00E702EF000B00F102F90022
:10015E000A00FC0204010200B8030E010100BC03F8
:10016E0010010000F894EE27ECBBF1E0FBBFEBBFF3
:10017E00E5BF8DE0A2E0BB27ED938A95E9F780E01D
:10018E0098E0A0E6ED930197E9F7ECE1F1E08591B7
:10019E009591009761F0A591B59105901590BF01CD
:1001AE00F00105900D920197E1F7FB01F0CFEFE51D
:1001BE00EDBFE8E0EEBFC0E6D2E00C941A01AA93C0
:1001CE005D9BFECFE881ECB90C944A020A921A921A
:1001DE00FA926A937A938A939A93AA93BA93EA932A
:1001EE00FA93EFB7EA93E52DF0E0E855FC4FFF9355
:1001FE00EF930E946502AF91BF91EC935394E0E1AF
:10020E005E1618F0E1E04E2E5524E991EFBFF991FC
:10021E00E991B991A9919991899179916991F99001
:10022E0019900990189500E010E020E030E0EFEF13
:10023E00EABBE0E6E7BBE0E0E8BBE5BFEFEFE4BF1B
:10024E00E0E0EBB9E8E9EAB9E6E8E0BDE0E0E0BD00
:10025E00E9E1E9B97894A0E1EAD0E6E0F3E0FA93B7
:10026E00EA93A0E6B2E00E944C02ECE0F3E0FA93CF
:10027E00EA93A5E6B2E00E944C02E8E1F3E0FA93BD
:10028E00EA93A0E7B2E00E944C02E2E3F3E0FA93B5
:10029E00EA93A9E8B2E00E944C02ECE4F3E0FA9390
:1002AE00EA93A2EAB2E00E944C02E7E5F3E0FA9389
:1002BE00EA93ACEAB2E00E944C02E1E6F3E0FA9374
:1002CE00EA93A5EBB2E00E944C02EBE7F3E0FA935F
:1002DE00EA93AEECB2E00E944C02E5E9F3E0FA9349
:1002EE00EA93A7EEB2E00E944C02ECE9F3E0FA9337
:1002FE00EA93A1EFB2E00E944C02C59A0E946902F5
:10030E00C69AA4E6B0E00E947D02C59A20E030E0D5
:10031E00A8E1B3E00E9459022E173F0748F4A8E166
:10032E00B3E0A20FB31FAC914ADF2F5F3F4FF0CF68
:10033E004420F1F3E1E0E41589F447D0E0E0EA93DC
:10034E00A0E036D0A8EAB3E061D0E0E0EA93A1E005
:10035E002FD0ACEFB2E05AD044245524A8E8B3E134
:10036E000E947D020E946902C59AC8CFFFCFAA9350
:10037E00EBB3EF70AE2FE881E07FEA2BEBBB8BE1A6
:10038E008A95F1F7DA9A8BE18A95F1F7DA988BE193
:10039E008A95F1F778C0AA93A881E9DFE881E29502
:1003AE00E883A881E4DF88EC90E00197F1F76BC059
:1003BE00AA93E881F0E0E854FC4FE081A981AE0FEA
:1003CE00EADF7980688022960895A2E00E946F028B
:1003DE00ACE0E1DFA1E00E946F02E0E06E2E7E2E27
:1003EE000895AA93A881AA3011F0791448F0E0E09C
:1003FE00EA936394A62DDCDFA881AA3009F443C0EA
:10040E007394D89AA881C7DFD8983DC0BA93AA939F
:10041E001A93A981BA81ED91A983BA831E2FE03078
:10042E0019F0A12FDEDFF5CF188123960895AA9338
:10043E00EAB3E06FEABBD29AD09AD19ADA98D898FA
:10044E00D9989880E881E058E093BA03E881E054A7
:10045E00E093BB03A4E1B0E00E947D020E9475020E
:10046E000E9475020E947502A0E281DF80E991E090
:10047E000197F1F7A8E28FDFA4E08DDFA5E88BDF0F
:10048E00A6E089DFA2DF21960895BA93AA93E99197
:10049E00F991A991B991CD0161916D936623E1F71F
:1004AE00FC010895BA93AA93A991B991EE27FF275B
:1004BE006D91662311F03196FBCF08955F9BFECFB1
:1004CE00ECB10895C698C598A8ECB0E00C947D02E6
:1004DE000E94D201A3E0B0E00C947D02A0E30E9442
:1004EE00BE0180E991E00197F1F70895109639F079
:1004FE0080EA9FE00197F1F7A8951197C9F7089543
:00000001FF
