:0E0000000C94C8000C9400000C9400000C94AA
:10000E0000000C9400000C9400000C9400000C9462
:10001E0000000C9400000C9400000C9400000C9452
:10002E0000000C9400000C94FC000C9400000C9446
:10003E0000000C9400000C9400000C9400000C9432
:10004E0000000C9400001027E80364000A00010071
:10005E000010000110000100000041540D0A004183
:10006E00542B524D4141440D0A0041542B42494EEE
:10007E00443D393844332C41312C463542353438E1
:10008E000D0A0041542B42494E443D393844332C1D
:10009E0032312C4637334238310D0A0041542B4948
:1000AE004E49540D0A0041542B494E510D0A004140
:1000BE00542B4C494E4B3D393844332C41312C4650
:1000CE0035423534380D0A0041542B4C494E4B3DC8
:1000DE00393844332C32312C4637334238310D0AFD
:1000EE000041542B444953430D0A0041542B5354A1
:1000FE004154450D0A004E6F20422E746F6F746886
:10010E0020436F6E2E00422E746F6F746820436F03
:10011E006E6E65637465640080C001002D4E414EA5
:10012E0000494E4600000100050066000500600211
:10013E0068000B0065026D0019007002780019004E
:10014E00890291000A00A202AA000900AC02B400C2
:10015E001900B502BD001900CE02D6000A00E70252
:10016E00EF000B00F102F9001000FC020401120076
:10017E000C0314010200E00326010100E403280130
:10018E000000F894EE27ECBBF1E0FBBFEBBFE5BF40
:10019E008DE0A2E0BB27ED938A95E9F780E098E029
:1001AE00A0E6ED930197E9F7E4E3F1E085919591EF
:1001BE00009761F0A591B59105901590BF01F001E2
:1001CE0005900D920197E1F7FB01F0CFEFE5EDBF42
:1001DE00E8E0EEBFC0E6D2E00C942701AA935D9B47
:1001EE00FECFE881ECB90C9470020A921A92FA9240
:1001FE006A937A938A939A93AA93BA93EA93FA9309
:10020E00EFB7EA93E52DF0E0E054FC4FFF93EF9348
:10021E000E948B02AF91BF91EC935394E0E25E1675
:10022E0008F05524E991EFBFF991E991B991A9919F
:10023E009991899179916991F990199009901895F0
:10024E0000E010E0E0E6E7BBE0E0E8BBE5BFE4BFBE
:10025E00EBB9E8E9EAB9E6E8E0BDE0E0E0BDE7E6E3
:10026E00E9B9A0E10AD1EEE1F3E0FA93EA93A0E650
:10027E00B2E00E947202E4E2F3E0FA93EA93A5E69A
:10028E00B2E00E947202E0E3F3E0FA93EA93A0E791
:10029E00B2E00E947202EAE4F3E0FA93EA93A9E86C
:1002AE00B2E00E947202E4E6F3E0FA93EA93A2EA65
:1002BE00B2E00E947202EFE6F3E0FA93EA93ACEA40
:1002CE00B2E00E947202E9E7F3E0FA93EA93A5EB3B
:1002DE00B2E00E947202E3E9F3E0FA93EA93AEEC25
:1002EE00B2E00E947202EDEAF3E0FA93EA93A7EE0F
:1002FE00B2E00E947202E4EBF3E0FA93EA93A1EF0C
:10030E00B2E00E947202C59A7894E9E1E9B9C69802
:10031E00C598A8ECB0E00E94B502C69A0E948F0262
:10032E00C59A00E010E0A4E2B3E00E947F020E172F
:10033E001F0748F4A4E2B3E0A00FB11FAC914EDF4B
:10034E000F5F1F4FF0CF0E948F020E94930200E0BA
:10035E0010E0AAE4B3E00E947F020E171F0748F4D4
:10036E00AAE4B3E0A00FB11FAC9138DF0F5F1F4FAF
:10037E00F0CF0E948F020E949302C698C598E7E6BE
:10038E00E9B9A8ECB0E00E94B502C59AB79908C0C9
:10039E000E94A202ACEFB2E05FD00E94A902F6CF9B
:1003AE000E94A202ACE0B3E057D0A0E1B7E20E94F7
:1003BE00B502ABCFFFCFAA93EBB3EF70AE2FE881B0
:1003CE00E07FEA2BEBBB8BE18A95F1F7DA9A8BE1B2
:1003DE008A95F1F7DA988BE18A95F1F77AC0AA93AC
:1003EE00A881E9DFE881E295E883A881E4DF88EC63
:1003FE0090E00197F1F76DC0AA93E881F0E0E0522A
:10040E00FC4FE081A981AE0FEADF49807880229609
:10041E000895A2E0E4DF0E94A902ACE0E0DFA1E0D3
:10042E00DEDF0E94A902E0E07E2E4E2E0895AA93F2
:10043E00A881AA3011F0461448F0E0E0EA937394D4
:10044E00A72DDADFA881AA3009F443C04394D89AC5
:10045E00A881C5DFD8983DC0BA93AA931A93A981F3
:10046E00BA81ED91A983BA831E2FE03019F0A12F26
:10047E00DEDFF5CF188123960895AA93EAB3E06FD5
:10048E00EABBD29AD09AD19ADA98D898D99868803D
:10049E00E881E058E093E203E881E054E093E3035F
:1004AE00A4E1B0E00E94B5020E94AD020E94AD022E
:1004BE000E94AD02A0E27FDF80E991E00197F1F7A3
:1004CE00A8E28DDFA4E08BDFA5E889DFA6E087DF59
:1004DE00A0DF21960895BA93AA93E991F991A99173
:1004EE00B991CD0161916D936623E1F7FC010895F9
:1004FE00BA93AA93A991B991EE27FF276D9166231E
:10050E0011F03196FBCF08955F9BFECFECB10895AD
:10051E00A4E6B0E00C94B5020E941002E0E0EA936B
:10052E00A0E00E940302A0ECB3E00E943302A8E810
:10053E00B3E10C94B5020E941002E0E0EA93A0E051
:10054E000C940302A3E0B0E00C94B502A0E30E9469
:10055E00E20180E991E00197F1F70895109639F0E4
:10056E0080EA9FE00197F1F7A8951197C9F70895D2
:00000001FF
