:060000000C94C8000C94F2
:1000060000000C9400000C9400000C9400000C946A
:1000160000000C9400000C9400000C9400000C945A
:1000260000000C9400000C9400000C9400000C944A
:10003600FC000C9400000C9400000C9400000C943E
:1000460000000C9400000C9400000C940000102793
:10005600E80364000A00010000100001100001001E
:10006600000041540D0A0041542B524D4141440DAC
:100076000A0041542B42494E443D393844332C4101
:10008600312C4635423534380D0A0041542B42494D
:100096004E443D393844332C32312C4637334238BE
:1000A600310D0A0041542B494E49540D0A00415462
:1000B6002B494E510D0A0041542B4C494E4B3D39AC
:1000C6003844332C41312C4635423534380D0A003C
:1000D60041542B4C494E4B3D393844332C32312C4C
:1000E6004637334238310D0A0041542B44495343B5
:1000F6000D0A0041542B53544154450D0A004E6FCE
:1001060020422E746F6F746820436F6E2E00422E4D
:10011600746F6F746820436F6E6E656374656400F8
:1001260080C001002D4E414E00494E46000002009F
:10013600040066000500600268000B0065026D00A1
:100146001900700278001900890291000A00A202C3
:10015600AA000900AC02B4001900B502BD001900DE
:10016600CE02D6000A00E702EF000B00F102F9000A
:100176001000FC02040112000C0314010200E0034B
:1001860026010100E40328010000F894EE27ECBBE9
:10019600F1E0FBBFEBBFE5BF8DE0A2E0BB27ED932F
:1001A6008A95E9F780E098E0A0E6ED930197E9F7F4
:1001B600E4E3F1E085919591009761F0A591B59101
:1001C60005901590BF01F00105900D920197E1F79A
:1001D600FB01F0CFEFE5EDBFE8E0EEBFC0E6D2E011
:1001E6000C942701AA935D9BFECFE881ECB90C9491
:1001F600A1020A921A92FA926A937A938A939A932E
:10020600AA93BA93EA93FA93EFB7EA93E52DF0E04F
:10021600E054FC4FFF93EF930E94BC02AF91BF9155
:10022600EC935394E0E25E1608F05524E991EFBF93
:10023600F991E991B991A9919991899179916991E8
:10024600F99019900990189500E010E0E0E6E7BBF8
:10025600E0E0E8BBE5BFE4BFEBB9E8E9EAB9E6E808
:10026600E0BDE0E0E0BDE9E1E9B9A0E13BD1EEE1C6
:10027600F3E0FA93EA93A0E6B2E00E94A302E4E276
:10028600F3E0FA93EA93A5E6B2E00E94A302E0E364
:10029600F3E0FA93EA93A0E7B2E00E94A302EAE44D
:1002A600F3E0FA93EA93A9E8B2E00E94A302E4E637
:1002B600F3E0FA93EA93A2EAB2E00E94A302EFE621
:1002C600F3E0FA93EA93ACEAB2E00E94A302E9E70C
:1002D600F3E0FA93EA93A5EBB2E00E94A302E3E906
:1002E600F3E0FA93EA93AEECB2E00E94A302EDEAE1
:1002F600F3E0FA93EA93A7EEB2E00E94A302E4EBDE
:10030600F3E0FA93EA93A1EFB2E00E94A302C59A42
:1003160078940E94C002C69A0E94C602C59A00E05E
:1003260010E0AEE1B3E00E94CA0238F4AEE1B3E0F9
:100336000E94CF020F5F1F4FF4CF0E94C6020E9499
:10034600D402A4E2B3E00E94CA0238F4A4E2B3E005
:100356000E94CF020F5F1F4FF4CF0E94C6020E9479
:10036600D402AAE4B3E00E94CA0238F4AAE4B3E0D5
:100376000E94CF020F5F1F4FF4CF0E94C6020E9459
:10038600D402A4E6B3E00E94CA0238F4A4E6B3E0BD
:100396000E94CF020F5F1F4FF4CF0E94C6020E9439
:1003A600D402AFE6B3E00E94CA0238F4AFE6B3E087
:1003B6000E94CF020F5F1F4FF4CF0E94C6020E9419
:1003C600D402A3E9B3E00E94CA0238F4A3E9B3E079
:1003D6000E94CF020F5F1F4FF4CF0E94C6020E94F9
:1003E600E602A0ECB3E06DD0A8E8B3E10E94F90202
:1003F6000E94C002C59AB79908C00E94E602ACEFF7
:10040600B2E05FD00E94ED02F6CF0E94E602ACE0B9
:10041600B3E057D0A0E1B7E20E94F9027ACFFFCF4E
:10042600AA93EBB3EF70AE2FE881E07FEA2BEBBB2C
:100436008BE18A95F1F7DA9A8BE18A95F1F7DA98EA
:100446008BE18A95F1F77AC0AA93A881E9DFE88162
:10045600E295E883A881E4DF88EC90E00197F1F764
:100466006DC0AA93E881F0E0E052FC4FE081A981DB
:10047600AE0FEADF7980688022960895A2E0E4DF75
:100486000E94ED02ACE0E0DFA1E0DEDF0E94ED02BB
:10049600E0E06E2E7E2E0895AA93A881AA3011F070
:1004A600791448F0E0E0EA936394A62DDADFA88198
:1004B600AA3009F443C07394D89AA881C5DFD898A6
:1004C6003DC0BA93AA931A93A981BA81ED91A983E3
:1004D600BA831E2FE03019F0A12FDEDFF5CF188189
:1004E60023960895AA93EAB3E06FEABBD29AD09A0C
:1004F600D19ADA98D898D9989880E881E058E0930C
:10050600E203E881E054E093E303A4E1B0E00E9453
:10051600F9020E94F1020E94F1020E94F102A0E299
:100526007FDF80E991E00197F1F7A8E28DDFA4E093
:100536008BDFA5E889DFA6E087DFA0DF2196089597
:10054600BA93AA93E991F991A991B991CD016191D3
:100556006D936623E1F7FC010895BA93AA93A991D6
:10056600B991EE27FF276D91662311F03196FBCFE7
:1005760008955F9BFECFECB10895C698C598A8EC88
:10058600B0E00C94F902A4E6B0E00C94F9020E94E3
:10059600B0020E171F070895A00FB11FAC910C945F
:1005A600F5000E944102E0E0EA93A0E00E943402D6
:1005B600A0ECB3E00E946402A8E8B3E10E94F9024D
:1005C60000E010E008950E944102E0E0EA93A0E016
:1005D6000C943402A3E0B0E00C94F902A0E30E946C
:1005E600130280E991E00197F1F70895109639F02A
:1005F60080EA9FE00197F1F7A8951197C9F708954A
:00000001FF
